{
  "_format": "hh-sol-artifact-1",
  "contractName": "Dilty",
  "sourceName": "contracts/dilty.sol",
  "abi": [
    {
      "inputs": [],
      "stateMutability": "nonpayable",
      "type": "constructor"
    },
    {
      "inputs": [
        {
          "internalType": "address",
          "name": "sender",
          "type": "address"
        },
        {
          "internalType": "uint256",
          "name": "tokenId",
          "type": "uint256"
        },
        {
          "internalType": "address",
          "name": "owner",
          "type": "address"
        }
      ],
      "name": "ERC721IncorrectOwner",
      "type": "error"
    },
    {
      "inputs": [
        {
          "internalType": "address",
          "name": "operator",
          "type": "address"
        },
        {
          "internalType": "uint256",
          "name": "tokenId",
          "type": "uint256"
        }
      ],
      "name": "ERC721InsufficientApproval",
      "type": "error"
    },
    {
      "inputs": [
        {
          "internalType": "address",
          "name": "approver",
          "type": "address"
        }
      ],
      "name": "ERC721InvalidApprover",
      "type": "error"
    },
    {
      "inputs": [
        {
          "internalType": "address",
          "name": "operator",
          "type": "address"
        }
      ],
      "name": "ERC721InvalidOperator",
      "type": "error"
    },
    {
      "inputs": [
        {
          "internalType": "address",
          "name": "owner",
          "type": "address"
        }
      ],
      "name": "ERC721InvalidOwner",
      "type": "error"
    },
    {
      "inputs": [
        {
          "internalType": "address",
          "name": "receiver",
          "type": "address"
        }
      ],
      "name": "ERC721InvalidReceiver",
      "type": "error"
    },
    {
      "inputs": [
        {
          "internalType": "address",
          "name": "sender",
          "type": "address"
        }
      ],
      "name": "ERC721InvalidSender",
      "type": "error"
    },
    {
      "inputs": [
        {
          "internalType": "uint256",
          "name": "tokenId",
          "type": "uint256"
        }
      ],
      "name": "ERC721NonexistentToken",
      "type": "error"
    },
    {
      "inputs": [
        {
          "internalType": "address",
          "name": "owner",
          "type": "address"
        }
      ],
      "name": "OwnableInvalidOwner",
      "type": "error"
    },
    {
      "inputs": [
        {
          "internalType": "address",
          "name": "account",
          "type": "address"
        }
      ],
      "name": "OwnableUnauthorizedAccount",
      "type": "error"
    },
    {
      "anonymous": false,
      "inputs": [
        {
          "indexed": true,
          "internalType": "address",
          "name": "owner",
          "type": "address"
        },
        {
          "indexed": true,
          "internalType": "address",
          "name": "approved",
          "type": "address"
        },
        {
          "indexed": true,
          "internalType": "uint256",
          "name": "tokenId",
          "type": "uint256"
        }
      ],
      "name": "Approval",
      "type": "event"
    },
    {
      "anonymous": false,
      "inputs": [
        {
          "indexed": true,
          "internalType": "address",
          "name": "owner",
          "type": "address"
        },
        {
          "indexed": true,
          "internalType": "address",
          "name": "operator",
          "type": "address"
        },
        {
          "indexed": false,
          "internalType": "bool",
          "name": "approved",
          "type": "bool"
        }
      ],
      "name": "ApprovalForAll",
      "type": "event"
    },
    {
      "anonymous": false,
      "inputs": [
        {
          "indexed": false,
          "internalType": "uint256",
          "name": "_fromTokenId",
          "type": "uint256"
        },
        {
          "indexed": false,
          "internalType": "uint256",
          "name": "_toTokenId",
          "type": "uint256"
        }
      ],
      "name": "BatchMetadataUpdate",
      "type": "event"
    },
    {
      "anonymous": false,
      "inputs": [
        {
          "indexed": false,
          "internalType": "uint256",
          "name": "_tokenId",
          "type": "uint256"
        }
      ],
      "name": "MetadataUpdate",
      "type": "event"
    },
    {
      "anonymous": false,
      "inputs": [
        {
          "indexed": true,
          "internalType": "address",
          "name": "previousOwner",
          "type": "address"
        },
        {
          "indexed": true,
          "internalType": "address",
          "name": "newOwner",
          "type": "address"
        }
      ],
      "name": "OwnershipTransferred",
      "type": "event"
    },
    {
      "anonymous": false,
      "inputs": [
        {
          "indexed": true,
          "internalType": "address",
          "name": "from",
          "type": "address"
        },
        {
          "indexed": true,
          "internalType": "address",
          "name": "to",
          "type": "address"
        },
        {
          "indexed": true,
          "internalType": "uint256",
          "name": "tokenId",
          "type": "uint256"
        }
      ],
      "name": "Transfer",
      "type": "event"
    },
    {
      "inputs": [
        {
          "internalType": "address",
          "name": "to",
          "type": "address"
        },
        {
          "internalType": "uint256",
          "name": "tokenId",
          "type": "uint256"
        }
      ],
      "name": "approve",
      "outputs": [],
      "stateMutability": "nonpayable",
      "type": "function"
    },
    {
      "inputs": [
        {
          "internalType": "address",
          "name": "owner",
          "type": "address"
        }
      ],
      "name": "balanceOf",
      "outputs": [
        {
          "internalType": "uint256",
          "name": "",
          "type": "uint256"
        }
      ],
      "stateMutability": "view",
      "type": "function"
    },
    {
      "inputs": [
        {
          "internalType": "uint256",
          "name": "tokenId",
          "type": "uint256"
        }
      ],
      "name": "getApproved",
      "outputs": [
        {
          "internalType": "address",
          "name": "",
          "type": "address"
        }
      ],
      "stateMutability": "view",
      "type": "function"
    },
    {
      "inputs": [],
      "name": "getTotalSupply",
      "outputs": [
        {
          "internalType": "uint256",
          "name": "",
          "type": "uint256"
        }
      ],
      "stateMutability": "view",
      "type": "function"
    },
    {
      "inputs": [
        {
          "internalType": "address",
          "name": "owner",
          "type": "address"
        },
        {
          "internalType": "address",
          "name": "operator",
          "type": "address"
        }
      ],
      "name": "isApprovedForAll",
      "outputs": [
        {
          "internalType": "bool",
          "name": "",
          "type": "bool"
        }
      ],
      "stateMutability": "view",
      "type": "function"
    },
    {
      "inputs": [
        {
          "internalType": "string",
          "name": "tokenURI",
          "type": "string"
        }
      ],
      "name": "mint",
      "outputs": [
        {
          "internalType": "uint256",
          "name": "",
          "type": "uint256"
        }
      ],
      "stateMutability": "nonpayable",
      "type": "function"
    },
    {
      "inputs": [],
      "name": "mintSuperDiltyNFT",
      "outputs": [
        {
          "internalType": "uint256",
          "name": "",
          "type": "uint256"
        }
      ],
      "stateMutability": "nonpayable",
      "type": "function"
    },
    {
      "inputs": [],
      "name": "name",
      "outputs": [
        {
          "internalType": "string",
          "name": "",
          "type": "string"
        }
      ],
      "stateMutability": "view",
      "type": "function"
    },
    {
      "inputs": [],
      "name": "owner",
      "outputs": [
        {
          "internalType": "address",
          "name": "",
          "type": "address"
        }
      ],
      "stateMutability": "view",
      "type": "function"
    },
    {
      "inputs": [
        {
          "internalType": "uint256",
          "name": "tokenId",
          "type": "uint256"
        }
      ],
      "name": "ownerOf",
      "outputs": [
        {
          "internalType": "address",
          "name": "",
          "type": "address"
        }
      ],
      "stateMutability": "view",
      "type": "function"
    },
    {
      "inputs": [],
      "name": "renounceOwnership",
      "outputs": [],
      "stateMutability": "nonpayable",
      "type": "function"
    },
    {
      "inputs": [
        {
          "internalType": "address",
          "name": "from",
          "type": "address"
        },
        {
          "internalType": "address",
          "name": "to",
          "type": "address"
        },
        {
          "internalType": "uint256",
          "name": "tokenId",
          "type": "uint256"
        }
      ],
      "name": "safeTransferFrom",
      "outputs": [],
      "stateMutability": "nonpayable",
      "type": "function"
    },
    {
      "inputs": [
        {
          "internalType": "address",
          "name": "from",
          "type": "address"
        },
        {
          "internalType": "address",
          "name": "to",
          "type": "address"
        },
        {
          "internalType": "uint256",
          "name": "tokenId",
          "type": "uint256"
        },
        {
          "internalType": "bytes",
          "name": "data",
          "type": "bytes"
        }
      ],
      "name": "safeTransferFrom",
      "outputs": [],
      "stateMutability": "nonpayable",
      "type": "function"
    },
    {
      "inputs": [
        {
          "internalType": "address",
          "name": "operator",
          "type": "address"
        },
        {
          "internalType": "bool",
          "name": "approved",
          "type": "bool"
        }
      ],
      "name": "setApprovalForAll",
      "outputs": [],
      "stateMutability": "nonpayable",
      "type": "function"
    },
    {
      "inputs": [
        {
          "internalType": "bytes4",
          "name": "interfaceId",
          "type": "bytes4"
        }
      ],
      "name": "supportsInterface",
      "outputs": [
        {
          "internalType": "bool",
          "name": "",
          "type": "bool"
        }
      ],
      "stateMutability": "view",
      "type": "function"
    },
    {
      "inputs": [],
      "name": "symbol",
      "outputs": [
        {
          "internalType": "string",
          "name": "",
          "type": "string"
        }
      ],
      "stateMutability": "view",
      "type": "function"
    },
    {
      "inputs": [
        {
          "internalType": "uint256",
          "name": "tokenId",
          "type": "uint256"
        }
      ],
      "name": "tokenURI",
      "outputs": [
        {
          "internalType": "string",
          "name": "",
          "type": "string"
        }
      ],
      "stateMutability": "view",
      "type": "function"
    },
    {
      "inputs": [
        {
          "internalType": "address",
          "name": "to",
          "type": "address"
        },
        {
          "internalType": "uint256",
          "name": "amount",
          "type": "uint256"
        }
      ],
      "name": "transfer",
      "outputs": [],
      "stateMutability": "nonpayable",
      "type": "function"
    },
    {
      "inputs": [
        {
          "internalType": "address",
          "name": "from",
          "type": "address"
        },
        {
          "internalType": "address",
          "name": "to",
          "type": "address"
        },
        {
          "internalType": "uint256",
          "name": "tokenId",
          "type": "uint256"
        }
      ],
      "name": "transferFrom",
      "outputs": [],
      "stateMutability": "nonpayable",
      "type": "function"
    },
    {
      "inputs": [
        {
          "internalType": "address",
          "name": "newOwner",
          "type": "address"
        }
      ],
      "name": "transferOwnership",
      "outputs": [],
      "stateMutability": "nonpayable",
      "type": "function"
    }
  ],
  "bytecode": "0x60806040523480156200001157600080fd5b50336040518060400160405280601881526020017f426c6f636b636861696e204a6f75726e616c2044694c547900000000000000008152506040518060400160405280600681526020017f42434a444c540000000000000000000000000000000000000000000000000000815250816000908162000090919062000472565b508060019081620000a2919062000472565b505050600073ffffffffffffffffffffffffffffffffffffffff168173ffffffffffffffffffffffffffffffffffffffff16036200011a5760006040517f1e4fbdf70000000000000000000000000000000000000000000000000000000081526004016200011191906200059e565b60405180910390fd5b6200012b816200013260201b60201c565b50620005bb565b6000600760009054906101000a900473ffffffffffffffffffffffffffffffffffffffff16905081600760006101000a81548173ffffffffffffffffffffffffffffffffffffffff021916908373ffffffffffffffffffffffffffffffffffffffff1602179055508173ffffffffffffffffffffffffffffffffffffffff168173ffffffffffffffffffffffffffffffffffffffff167f8be0079c531659141344cd1fd0a4f28419497f9722a3daafe3b4186f6b6457e060405160405180910390a35050565b600081519050919050565b7f4e487b7100000000000000000000000000000000000000000000000000000000600052604160045260246000fd5b7f4e487b7100000000000000000000000000000000000000000000000000000000600052602260045260246000fd5b600060028204905060018216806200027a57607f821691505b60208210810362000290576200028f62000232565b5b50919050565b60008190508160005260206000209050919050565b60006020601f8301049050919050565b600082821b905092915050565b600060088302620002fa7fffffffffffffffffffffffffffffffffffffffffffffffffffffffffffffffff82620002bb565b620003068683620002bb565b95508019841693508086168417925050509392505050565b6000819050919050565b6000819050919050565b6000620003536200034d62000347846200031e565b62000328565b6200031e565b9050919050565b6000819050919050565b6200036f8362000332565b620003876200037e826200035a565b848454620002c8565b825550505050565b600090565b6200039e6200038f565b620003ab81848462000364565b505050565b5b81811015620003d357620003c760008262000394565b600181019050620003b1565b5050565b601f8211156200042257620003ec8162000296565b620003f784620002ab565b8101602085101562000407578190505b6200041f6200041685620002ab565b830182620003b0565b50505b505050565b600082821c905092915050565b6000620004476000198460080262000427565b1980831691505092915050565b600062000462838362000434565b9150826002028217905092915050565b6200047d82620001f8565b67ffffffffffffffff81111562000499576200049862000203565b5b620004a5825462000261565b620004b2828285620003d7565b600060209050601f831160018114620004ea5760008415620004d5578287015190505b620004e1858262000454565b86555062000551565b601f198416620004fa8662000296565b60005b828110156200052457848901518255600182019150602085019450602081019050620004fd565b8683101562000544578489015162000540601f89168262000434565b8355505b6001600288020188555050505b505050505050565b600073ffffffffffffffffffffffffffffffffffffffff82169050919050565b6000620005868262000559565b9050919050565b620005988162000579565b82525050565b6000602082019050620005b560008301846200058d565b92915050565b61284d80620005cb6000396000f3fe608060405234801561001057600080fd5b506004361061012c5760003560e01c80638da5cb5b116100ad578063c4e41b2211610071578063c4e41b221461031b578063c87b56dd14610339578063d85d3d2714610369578063e985e9c514610399578063f2fde38b146103c95761012c565b80638da5cb5b1461028b57806395d89b41146102a9578063a22cb465146102c7578063a9059cbb146102e3578063b88d4fde146102ff5761012c565b806342842e0e116100f457806342842e0e146101e75780636352211e146102035780636f3e63791461023357806370a0823114610251578063715018a6146102815761012c565b806301ffc9a71461013157806306fdde0314610161578063081812fc1461017f578063095ea7b3146101af57806323b872dd146101cb575b600080fd5b61014b60048036038101906101469190611c18565b6103e5565b6040516101589190611c60565b60405180910390f35b610169610446565b6040516101769190611d0b565b60405180910390f35b61019960048036038101906101949190611d63565b6104d8565b6040516101a69190611dd1565b60405180910390f35b6101c960048036038101906101c49190611e18565b6104f4565b005b6101e560048036038101906101e09190611e58565b61050a565b005b61020160048036038101906101fc9190611e58565b61060c565b005b61021d60048036038101906102189190611d63565b61062c565b60405161022a9190611dd1565b60405180910390f35b61023b61063e565b6040516102489190611eba565b60405180910390f35b61026b60048036038101906102669190611ed5565b610688565b6040516102789190611eba565b60405180910390f35b610289610742565b005b610293610756565b6040516102a09190611dd1565b60405180910390f35b6102b1610780565b6040516102be9190611d0b565b60405180910390f35b6102e160048036038101906102dc9190611f2e565b610812565b005b6102fd60048036038101906102f89190611e18565b610828565b005b610319600480360381019061031491906120a3565b6108e5565b005b610323610902565b6040516103309190611eba565b60405180910390f35b610353600480360381019061034e9190611d63565b61090c565b6040516103609190611d0b565b60405180910390f35b610383600480360381019061037e91906121c7565b610a1f565b6040516103909190611eba565b60405180910390f35b6103b360048036038101906103ae9190612210565b610a5d565b6040516103c09190611c60565b60405180910390f35b6103e360048036038101906103de9190611ed5565b610af1565b005b6000634906490660e01b7bffffffffffffffffffffffffffffffffffffffffffffffffffffffff1916827bffffffffffffffffffffffffffffffffffffffffffffffffffffffff1916148061043f575061043e82610b77565b5b9050919050565b6060600080546104559061227f565b80601f01602080910402602001604051908101604052809291908181526020018280546104819061227f565b80156104ce5780601f106104a3576101008083540402835291602001916104ce565b820191906000526020600020905b8154815290600101906020018083116104b157829003601f168201915b5050505050905090565b60006104e382610c59565b506104ed82610ce1565b9050919050565b6105068282610501610d1e565b610d26565b5050565b600073ffffffffffffffffffffffffffffffffffffffff168273ffffffffffffffffffffffffffffffffffffffff160361057c5760006040517f64a0ae920000000000000000000000000000000000000000000000000000000081526004016105739190611dd1565b60405180910390fd5b6000610590838361058b610d1e565b610d38565b90508373ffffffffffffffffffffffffffffffffffffffff168173ffffffffffffffffffffffffffffffffffffffff1614610606578382826040517f64283d7b0000000000000000000000000000000000000000000000000000000081526004016105fd939291906122b0565b60405180910390fd5b50505050565b610627838383604051806020016040528060008152506108e5565b505050565b600061063782610c59565b9050919050565b6000806040518060400160405280602081526020017f68747470733a2f2f697066732e696f2f697066732f3c495046535f484153483e815250905061068281610a1f565b91505090565b60008073ffffffffffffffffffffffffffffffffffffffff168273ffffffffffffffffffffffffffffffffffffffff16036106fb5760006040517f89c62b640000000000000000000000000000000000000000000000000000000081526004016106f29190611dd1565b60405180910390fd5b600360008373ffffffffffffffffffffffffffffffffffffffff1673ffffffffffffffffffffffffffffffffffffffff168152602001908152602001600020549050919050565b61074a610f52565b6107546000610fd9565b565b6000600760009054906101000a900473ffffffffffffffffffffffffffffffffffffffff16905090565b60606001805461078f9061227f565b80601f01602080910402602001604051908101604052809291908181526020018280546107bb9061227f565b80156108085780601f106107dd57610100808354040283529160200191610808565b820191906000526020600020905b8154815290600101906020018083116107eb57829003601f168201915b5050505050905090565b61082461081d610d1e565b838361109f565b5050565b80600854101561086d576040517f08c379a000000000000000000000000000000000000000000000000000000000815260040161086490612333565b60405180910390fd5b806008600082825461087f9190612382565b92505081905550808273ffffffffffffffffffffffffffffffffffffffff163373ffffffffffffffffffffffffffffffffffffffff167fddf252ad1be2c89b69c2b068fc378daa952ba7f163c4a11628f55a4df523b3ef60405160405180910390a45050565b6108f084848461050a565b6108fc8484848461120e565b50505050565b6000600854905090565b606061091782610c59565b5060006006600084815260200190815260200160002080546109389061227f565b80601f01602080910402602001604051908101604052809291908181526020018280546109649061227f565b80156109b15780601f10610986576101008083540402835291602001916109b1565b820191906000526020600020905b81548152906001019060200180831161099457829003601f168201915b5050505050905060006109c26113c5565b905060008151036109d7578192505050610a1a565b600082511115610a0c5780826040516020016109f49291906123f2565b60405160208183030381529060405292505050610a1a565b610a15846113dc565b925050505b919050565b600060086000815480929190610a3490612416565b919050555060006008549050610a4a3382611445565b610a54818461153e565b80915050919050565b6000600560008473ffffffffffffffffffffffffffffffffffffffff1673ffffffffffffffffffffffffffffffffffffffff16815260200190815260200160002060008373ffffffffffffffffffffffffffffffffffffffff1673ffffffffffffffffffffffffffffffffffffffff16815260200190815260200160002060009054906101000a900460ff16905092915050565b610af9610f52565b600073ffffffffffffffffffffffffffffffffffffffff168173ffffffffffffffffffffffffffffffffffffffff1603610b6b5760006040517f1e4fbdf7000000000000000000000000000000000000000000000000000000008152600401610b629190611dd1565b60405180910390fd5b610b7481610fd9565b50565b60007f80ac58cd000000000000000000000000000000000000000000000000000000007bffffffffffffffffffffffffffffffffffffffffffffffffffffffff1916827bffffffffffffffffffffffffffffffffffffffffffffffffffffffff19161480610c4257507f5b5e139f000000000000000000000000000000000000000000000000000000007bffffffffffffffffffffffffffffffffffffffffffffffffffffffff1916827bffffffffffffffffffffffffffffffffffffffffffffffffffffffff1916145b80610c525750610c518261159a565b5b9050919050565b600080610c6583611604565b9050600073ffffffffffffffffffffffffffffffffffffffff168173ffffffffffffffffffffffffffffffffffffffff1603610cd857826040517f7e273289000000000000000000000000000000000000000000000000000000008152600401610ccf9190611eba565b60405180910390fd5b80915050919050565b60006004600083815260200190815260200160002060009054906101000a900473ffffffffffffffffffffffffffffffffffffffff169050919050565b600033905090565b610d338383836001611641565b505050565b600080610d4484611604565b9050600073ffffffffffffffffffffffffffffffffffffffff168373ffffffffffffffffffffffffffffffffffffffff1614610d8657610d85818486611806565b5b600073ffffffffffffffffffffffffffffffffffffffff168173ffffffffffffffffffffffffffffffffffffffff1614610e1757610dc8600085600080611641565b6001600360008373ffffffffffffffffffffffffffffffffffffffff1673ffffffffffffffffffffffffffffffffffffffff168152602001908152602001600020600082825403925050819055505b600073ffffffffffffffffffffffffffffffffffffffff168573ffffffffffffffffffffffffffffffffffffffff1614610e9a576001600360008773ffffffffffffffffffffffffffffffffffffffff1673ffffffffffffffffffffffffffffffffffffffff168152602001908152602001600020600082825401925050819055505b846002600086815260200190815260200160002060006101000a81548173ffffffffffffffffffffffffffffffffffffffff021916908373ffffffffffffffffffffffffffffffffffffffff160217905550838573ffffffffffffffffffffffffffffffffffffffff168273ffffffffffffffffffffffffffffffffffffffff167fddf252ad1be2c89b69c2b068fc378daa952ba7f163c4a11628f55a4df523b3ef60405160405180910390a4809150509392505050565b610f5a610d1e565b73ffffffffffffffffffffffffffffffffffffffff16610f78610756565b73ffffffffffffffffffffffffffffffffffffffff1614610fd757610f9b610d1e565b6040517f118cdaa7000000000000000000000000000000000000000000000000000000008152600401610fce9190611dd1565b60405180910390fd5b565b6000600760009054906101000a900473ffffffffffffffffffffffffffffffffffffffff16905081600760006101000a81548173ffffffffffffffffffffffffffffffffffffffff021916908373ffffffffffffffffffffffffffffffffffffffff1602179055508173ffffffffffffffffffffffffffffffffffffffff168173ffffffffffffffffffffffffffffffffffffffff167f8be0079c531659141344cd1fd0a4f28419497f9722a3daafe3b4186f6b6457e060405160405180910390a35050565b600073ffffffffffffffffffffffffffffffffffffffff168273ffffffffffffffffffffffffffffffffffffffff160361111057816040517f5b08ba180000000000000000000000000000000000000000000000000000000081526004016111079190611dd1565b60405180910390fd5b80600560008573ffffffffffffffffffffffffffffffffffffffff1673ffffffffffffffffffffffffffffffffffffffff16815260200190815260200160002060008473ffffffffffffffffffffffffffffffffffffffff1673ffffffffffffffffffffffffffffffffffffffff16815260200190815260200160002060006101000a81548160ff0219169083151502179055508173ffffffffffffffffffffffffffffffffffffffff168373ffffffffffffffffffffffffffffffffffffffff167f17307eab39ab6107e8899845ad3d59bd9653f200f220920489ca2b5937696c31836040516112019190611c60565b60405180910390a3505050565b60008373ffffffffffffffffffffffffffffffffffffffff163b11156113bf578273ffffffffffffffffffffffffffffffffffffffff1663150b7a02611252610d1e565b8685856040518563ffffffff1660e01b815260040161127494939291906124b3565b6020604051808303816000875af19250505080156112b057506040513d601f19601f820116820180604052508101906112ad9190612514565b60015b611334573d80600081146112e0576040519150601f19603f3d011682016040523d82523d6000602084013e6112e5565b606091505b50600081510361132c57836040517f64a0ae920000000000000000000000000000000000000000000000000000000081526004016113239190611dd1565b60405180910390fd5b805181602001fd5b63150b7a0260e01b7bffffffffffffffffffffffffffffffffffffffffffffffffffffffff1916817bffffffffffffffffffffffffffffffffffffffffffffffffffffffff1916146113bd57836040517f64a0ae920000000000000000000000000000000000000000000000000000000081526004016113b49190611dd1565b60405180910390fd5b505b50505050565b606060405180602001604052806000815250905090565b60606113e782610c59565b5060006113f26113c5565b90506000815111611412576040518060200160405280600081525061143d565b8061141c846118ca565b60405160200161142d9291906123f2565b6040516020818303038152906040525b915050919050565b600073ffffffffffffffffffffffffffffffffffffffff168273ffffffffffffffffffffffffffffffffffffffff16036114b75760006040517f64a0ae920000000000000000000000000000000000000000000000000000000081526004016114ae9190611dd1565b60405180910390fd5b60006114c583836000610d38565b9050600073ffffffffffffffffffffffffffffffffffffffff168173ffffffffffffffffffffffffffffffffffffffff16146115395760006040517f73c6ac6e0000000000000000000000000000000000000000000000000000000081526004016115309190611dd1565b60405180910390fd5b505050565b8060066000848152602001908152602001600020908161155e91906126ed565b507ff8e1a15aba9398e019f0b49df1a4fde98ee17ae345cb5f6b5e2c27f5033e8ce78260405161158e9190611eba565b60405180910390a15050565b60007f01ffc9a7000000000000000000000000000000000000000000000000000000007bffffffffffffffffffffffffffffffffffffffffffffffffffffffff1916827bffffffffffffffffffffffffffffffffffffffffffffffffffffffff1916149050919050565b60006002600083815260200190815260200160002060009054906101000a900473ffffffffffffffffffffffffffffffffffffffff169050919050565b808061167a5750600073ffffffffffffffffffffffffffffffffffffffff168273ffffffffffffffffffffffffffffffffffffffff1614155b156117ae57600061168a84610c59565b9050600073ffffffffffffffffffffffffffffffffffffffff168373ffffffffffffffffffffffffffffffffffffffff16141580156116f557508273ffffffffffffffffffffffffffffffffffffffff168173ffffffffffffffffffffffffffffffffffffffff1614155b801561170857506117068184610a5d565b155b1561174a57826040517fa9fbf51f0000000000000000000000000000000000000000000000000000000081526004016117419190611dd1565b60405180910390fd5b81156117ac57838573ffffffffffffffffffffffffffffffffffffffff168273ffffffffffffffffffffffffffffffffffffffff167f8c5be1e5ebec7d5bd14f71427d1e84f3dd0314c0f7b2291e5b200ac8c7c3b92560405160405180910390a45b505b836004600085815260200190815260200160002060006101000a81548173ffffffffffffffffffffffffffffffffffffffff021916908373ffffffffffffffffffffffffffffffffffffffff16021790555050505050565b611811838383611998565b6118c557600073ffffffffffffffffffffffffffffffffffffffff168373ffffffffffffffffffffffffffffffffffffffff160361188657806040517f7e27328900000000000000000000000000000000000000000000000000000000815260040161187d9190611eba565b60405180910390fd5b81816040517f177e802f0000000000000000000000000000000000000000000000000000000081526004016118bc9291906127bf565b60405180910390fd5b505050565b6060600060016118d984611a59565b01905060008167ffffffffffffffff8111156118f8576118f7611f78565b5b6040519080825280601f01601f19166020018201604052801561192a5781602001600182028036833780820191505090505b509050600082602001820190505b60011561198d578080600190039150507f3031323334353637383961626364656600000000000000000000000000000000600a86061a8153600a8581611981576119806127e8565b5b04945060008503611938575b819350505050919050565b60008073ffffffffffffffffffffffffffffffffffffffff168373ffffffffffffffffffffffffffffffffffffffff1614158015611a5057508273ffffffffffffffffffffffffffffffffffffffff168473ffffffffffffffffffffffffffffffffffffffff161480611a115750611a108484610a5d565b5b80611a4f57508273ffffffffffffffffffffffffffffffffffffffff16611a3783610ce1565b73ffffffffffffffffffffffffffffffffffffffff16145b5b90509392505050565b600080600090507a184f03e93ff9f4daa797ed6e38ed64bf6a1f0100000000000000008310611ab7577a184f03e93ff9f4daa797ed6e38ed64bf6a1f0100000000000000008381611aad57611aac6127e8565b5b0492506040810190505b6d04ee2d6d415b85acef81000000008310611af4576d04ee2d6d415b85acef81000000008381611aea57611ae96127e8565b5b0492506020810190505b662386f26fc100008310611b2357662386f26fc100008381611b1957611b186127e8565b5b0492506010810190505b6305f5e1008310611b4c576305f5e1008381611b4257611b416127e8565b5b0492506008810190505b6127108310611b71576127108381611b6757611b666127e8565b5b0492506004810190505b60648310611b945760648381611b8a57611b896127e8565b5b0492506002810190505b600a8310611ba3576001810190505b80915050919050565b6000604051905090565b600080fd5b600080fd5b60007fffffffff0000000000000000000000000000000000000000000000000000000082169050919050565b611bf581611bc0565b8114611c0057600080fd5b50565b600081359050611c1281611bec565b92915050565b600060208284031215611c2e57611c2d611bb6565b5b6000611c3c84828501611c03565b91505092915050565b60008115159050919050565b611c5a81611c45565b82525050565b6000602082019050611c756000830184611c51565b92915050565b600081519050919050565b600082825260208201905092915050565b60005b83811015611cb5578082015181840152602081019050611c9a565b60008484015250505050565b6000601f19601f8301169050919050565b6000611cdd82611c7b565b611ce78185611c86565b9350611cf7818560208601611c97565b611d0081611cc1565b840191505092915050565b60006020820190508181036000830152611d258184611cd2565b905092915050565b6000819050919050565b611d4081611d2d565b8114611d4b57600080fd5b50565b600081359050611d5d81611d37565b92915050565b600060208284031215611d7957611d78611bb6565b5b6000611d8784828501611d4e565b91505092915050565b600073ffffffffffffffffffffffffffffffffffffffff82169050919050565b6000611dbb82611d90565b9050919050565b611dcb81611db0565b82525050565b6000602082019050611de66000830184611dc2565b92915050565b611df581611db0565b8114611e0057600080fd5b50565b600081359050611e1281611dec565b92915050565b60008060408385031215611e2f57611e2e611bb6565b5b6000611e3d85828601611e03565b9250506020611e4e85828601611d4e565b9150509250929050565b600080600060608486031215611e7157611e70611bb6565b5b6000611e7f86828701611e03565b9350506020611e9086828701611e03565b9250506040611ea186828701611d4e565b9150509250925092565b611eb481611d2d565b82525050565b6000602082019050611ecf6000830184611eab565b92915050565b600060208284031215611eeb57611eea611bb6565b5b6000611ef984828501611e03565b91505092915050565b611f0b81611c45565b8114611f1657600080fd5b50565b600081359050611f2881611f02565b92915050565b60008060408385031215611f4557611f44611bb6565b5b6000611f5385828601611e03565b9250506020611f6485828601611f19565b9150509250929050565b600080fd5b600080fd5b7f4e487b7100000000000000000000000000000000000000000000000000000000600052604160045260246000fd5b611fb082611cc1565b810181811067ffffffffffffffff82111715611fcf57611fce611f78565b5b80604052505050565b6000611fe2611bac565b9050611fee8282611fa7565b919050565b600067ffffffffffffffff82111561200e5761200d611f78565b5b61201782611cc1565b9050602081019050919050565b82818337600083830152505050565b600061204661204184611ff3565b611fd8565b90508281526020810184848401111561206257612061611f73565b5b61206d848285612024565b509392505050565b600082601f83011261208a57612089611f6e565b5b813561209a848260208601612033565b91505092915050565b600080600080608085870312156120bd576120bc611bb6565b5b60006120cb87828801611e03565b94505060206120dc87828801611e03565b93505060406120ed87828801611d4e565b925050606085013567ffffffffffffffff81111561210e5761210d611bbb565b5b61211a87828801612075565b91505092959194509250565b600067ffffffffffffffff82111561214157612140611f78565b5b61214a82611cc1565b9050602081019050919050565b600061216a61216584612126565b611fd8565b90508281526020810184848401111561218657612185611f73565b5b612191848285612024565b509392505050565b600082601f8301126121ae576121ad611f6e565b5b81356121be848260208601612157565b91505092915050565b6000602082840312156121dd576121dc611bb6565b5b600082013567ffffffffffffffff8111156121fb576121fa611bbb565b5b61220784828501612199565b91505092915050565b6000806040838503121561222757612226611bb6565b5b600061223585828601611e03565b925050602061224685828601611e03565b9150509250929050565b7f4e487b7100000000000000000000000000000000000000000000000000000000600052602260045260246000fd5b6000600282049050600182168061229757607f821691505b6020821081036122aa576122a9612250565b5b50919050565b60006060820190506122c56000830186611dc2565b6122d26020830185611eab565b6122df6040830184611dc2565b949350505050565b7f4e6f7420656e6f75676820746f6b656e73000000000000000000000000000000600082015250565b600061231d601183611c86565b9150612328826122e7565b602082019050919050565b6000602082019050818103600083015261234c81612310565b9050919050565b7f4e487b7100000000000000000000000000000000000000000000000000000000600052601160045260246000fd5b600061238d82611d2d565b915061239883611d2d565b92508282039050818111156123b0576123af612353565b5b92915050565b600081905092915050565b60006123cc82611c7b565b6123d681856123b6565b93506123e6818560208601611c97565b80840191505092915050565b60006123fe82856123c1565b915061240a82846123c1565b91508190509392505050565b600061242182611d2d565b91507fffffffffffffffffffffffffffffffffffffffffffffffffffffffffffffffff820361245357612452612353565b5b600182019050919050565b600081519050919050565b600082825260208201905092915050565b60006124858261245e565b61248f8185612469565b935061249f818560208601611c97565b6124a881611cc1565b840191505092915050565b60006080820190506124c86000830187611dc2565b6124d56020830186611dc2565b6124e26040830185611eab565b81810360608301526124f4818461247a565b905095945050505050565b60008151905061250e81611bec565b92915050565b60006020828403121561252a57612529611bb6565b5b6000612538848285016124ff565b91505092915050565b60008190508160005260206000209050919050565b60006020601f8301049050919050565b600082821b905092915050565b6000600883026125a37fffffffffffffffffffffffffffffffffffffffffffffffffffffffffffffffff82612566565b6125ad8683612566565b95508019841693508086168417925050509392505050565b6000819050919050565b60006125ea6125e56125e084611d2d565b6125c5565b611d2d565b9050919050565b6000819050919050565b612604836125cf565b612618612610826125f1565b848454612573565b825550505050565b600090565b61262d612620565b6126388184846125fb565b505050565b5b8181101561265c57612651600082612625565b60018101905061263e565b5050565b601f8211156126a15761267281612541565b61267b84612556565b8101602085101561268a578190505b61269e61269685612556565b83018261263d565b50505b505050565b600082821c905092915050565b60006126c4600019846008026126a6565b1980831691505092915050565b60006126dd83836126b3565b9150826002028217905092915050565b6126f682611c7b565b67ffffffffffffffff81111561270f5761270e611f78565b5b612719825461227f565b612724828285612660565b600060209050601f8311600181146127575760008415612745578287015190505b61274f85826126d1565b8655506127b7565b601f19841661276586612541565b60005b8281101561278d57848901518255600182019150602085019450602081019050612768565b868310156127aa57848901516127a6601f8916826126b3565b8355505b6001600288020188555050505b505050505050565b60006040820190506127d46000830185611dc2565b6127e16020830184611eab565b9392505050565b7f4e487b7100000000000000000000000000000000000000000000000000000000600052601260045260246000fdfea2646970667358221220c8ec4918bde5626a143a0913ca960b6844454f19e9596d283d8d9bd064d4a74c64736f6c63430008140033",
  "linkReferences": {},
  "deployedLinkReferences": {}
}